{
  "address": "0xa0ee39B2Dd9538ab6434F0F1601cfD1e2ef53DFa",
  "abi": [
    {
      "inputs": [
        {
          "internalType": "address",
          "name": "_treasury",
          "type": "address"
        },
        {
          "internalType": "address",
          "name": "_factoryStorage",
          "type": "address"
        },
        {
          "internalType": "address",
          "name": "_subsidyRouter",
          "type": "address"
        },
        {
          "internalType": "address",
          "name": "_dao",
          "type": "address"
        },
        {
          "internalType": "address",
          "name": "_helper",
          "type": "address"
        }
      ],
      "stateMutability": "nonpayable",
      "type": "constructor"
    },
    {
      "anonymous": false,
      "inputs": [
        {
          "indexed": false,
          "internalType": "address",
          "name": "treasury",
          "type": "address"
        },
        {
          "indexed": false,
          "internalType": "address",
          "name": "bond",
          "type": "address"
        },
        {
          "indexed": false,
          "internalType": "address",
          "name": "_initialOwner",
          "type": "address"
        }
      ],
      "name": "BondCreation",
      "type": "event"
    },
    {
      "anonymous": false,
      "inputs": [
        {
          "indexed": false,
          "internalType": "uint256[]",
          "name": "tierCeilings",
          "type": "uint256[]"
        },
        {
          "indexed": false,
          "internalType": "uint256[]",
          "name": "fees",
          "type": "uint256[]"
        }
      ],
      "name": "FeesAndTierCeilings",
      "type": "event"
    },
    {
      "inputs": [],
      "name": "DAO",
      "outputs": [
        {
          "internalType": "address",
          "name": "",
          "type": "address"
        }
      ],
      "stateMutability": "view",
      "type": "function"
    },
    {
      "inputs": [],
      "name": "FACTORY_STORAGE",
      "outputs": [
        {
          "internalType": "address",
          "name": "",
          "type": "address"
        }
      ],
      "stateMutability": "view",
      "type": "function"
    },
    {
      "inputs": [],
      "name": "HELPER",
      "outputs": [
        {
          "internalType": "address",
          "name": "",
          "type": "address"
        }
      ],
      "stateMutability": "view",
      "type": "function"
    },
    {
      "inputs": [],
      "name": "SUBSIDY_ROUTER",
      "outputs": [
        {
          "internalType": "address",
          "name": "",
          "type": "address"
        }
      ],
      "stateMutability": "view",
      "type": "function"
    },
    {
      "inputs": [],
      "name": "TREASURY",
      "outputs": [
        {
          "internalType": "address",
          "name": "",
          "type": "address"
        }
      ],
      "stateMutability": "view",
      "type": "function"
    },
    {
      "inputs": [
        {
          "internalType": "address",
          "name": "_payoutToken",
          "type": "address"
        },
        {
          "internalType": "address",
          "name": "_principleToken",
          "type": "address"
        },
        {
          "internalType": "address",
          "name": "_customTreasury",
          "type": "address"
        },
        {
          "internalType": "address",
          "name": "_initialOwner",
          "type": "address"
        }
      ],
      "name": "createBond",
      "outputs": [
        {
          "internalType": "address",
          "name": "_treasury",
          "type": "address"
        },
        {
          "internalType": "address",
          "name": "_bond",
          "type": "address"
        }
      ],
      "stateMutability": "nonpayable",
      "type": "function"
    },
    {
      "inputs": [
        {
          "internalType": "address",
          "name": "_payoutToken",
          "type": "address"
        },
        {
          "internalType": "address",
          "name": "_principleToken",
          "type": "address"
        },
        {
          "internalType": "address",
          "name": "_initialOwner",
          "type": "address"
        }
      ],
      "name": "createBondAndTreasury",
      "outputs": [
        {
          "internalType": "address",
          "name": "_treasury",
          "type": "address"
        },
        {
          "internalType": "address",
          "name": "_bond",
          "type": "address"
        }
      ],
      "stateMutability": "nonpayable",
      "type": "function"
    },
    {
      "inputs": [
        {
          "internalType": "uint256",
          "name": "",
          "type": "uint256"
        }
      ],
      "name": "fees",
      "outputs": [
        {
          "internalType": "uint256",
          "name": "",
          "type": "uint256"
        }
      ],
      "stateMutability": "view",
      "type": "function"
    },
    {
      "inputs": [],
      "name": "policy",
      "outputs": [
        {
          "internalType": "address",
          "name": "",
          "type": "address"
        }
      ],
      "stateMutability": "view",
      "type": "function"
    },
    {
      "inputs": [
        {
          "internalType": "uint256[]",
          "name": "_tierCeilings",
          "type": "uint256[]"
        },
        {
          "internalType": "uint256[]",
          "name": "_fees",
          "type": "uint256[]"
        }
      ],
      "name": "setTiersAndFees",
      "outputs": [],
      "stateMutability": "nonpayable",
      "type": "function"
    },
    {
      "inputs": [
        {
          "internalType": "uint256",
          "name": "",
          "type": "uint256"
        }
      ],
      "name": "tierCeilings",
      "outputs": [
        {
          "internalType": "uint256",
          "name": "",
          "type": "uint256"
        }
      ],
      "stateMutability": "view",
      "type": "function"
    },
    {
      "inputs": [
        {
          "internalType": "address",
          "name": "_newOwner",
          "type": "address"
        }
      ],
      "name": "transferManagment",
      "outputs": [],
      "stateMutability": "nonpayable",
      "type": "function"
    }
  ],
  "transactionHash": "0x61beddd9725e7f09781c2ccf6746a2dacce6b37d33ae481331ee7dd911105777",
  "args": [
    "0xc3Ab493d0d06c700d9daF7Ea58aBBe12038ec474",
    "0xEf1d5C1D8b7590F4D6E97c34095CB9A7db1Cd92D",
    "0xE8aDf4aC50E3B117095a418A0a384c10197D73d8",
    "0x1A621BBd762a52b01c3eF070D3317c8589c37915",
    "0x3ccE5361B93325eD1Fd4b6F7660b376fFb19f653"
  ],
  "solcInputHash": "da1493b86b8a7405cb923584ee4f7dc4",
  "bytecode": "0x61012060405234801561001157600080fd5b5060405162005e0f38038062005e0f833981810160405260a081101561003657600080fd5b508051602082015160408301516060840151608090940151600080546001600160a01b03191633179055929391929091906001600160a01b0385166100ad5760405162461bcd60e51b815260040180806020018281038252602a81526020018062005d61602a913960400191505060405180910390fd5b6001600160601b0319606086901b166080526001600160a01b0384166101055760405162461bcd60e51b815260040180806020018281038252603081526020018062005ddf6030913960400191505060405180910390fd5b6001600160601b0319606085901b1660a0526001600160a01b03831661015d5760405162461bcd60e51b815260040180806020018281038252602f81526020018062005d8b602f913960400191505060405180910390fd5b6001600160601b0319606084901b1660c0526001600160a01b0382166101b55760405162461bcd60e51b815260040180806020018281038252602581526020018062005dba6025913960400191505060405180910390fd5b6001600160601b0319606083901b1660e0526001600160a01b03811661020d5760405162461bcd60e51b815260040180806020018281038252602881526020018062005d396028913960400191505060405180910390fd5b6001600160601b031960609190911b16610100525050505060805160601c60a05160601c60c05160601c60e05160601c6101005160601c615a98620002a16000398061045652806109785280610ee652508061043552806109575280610c8e52508061041352806109355280610c6a52508061038f52806106075280610b2952508061036b52806109145250615a986000f3fe60806040523480156200001157600080fd5b5060043610620000e85760003560e01c80634acc79ed116200008d57806398fabd3a116200006357806398fabd3a1462000259578063e9b9fb621462000263578063f551bf20146200032e57620000e8565b80634acc79ed14620001f45780634d9793bc146200021457806375796e77146200024f57620000e8565b80632e63f2e811620000c35780632e63f2e8146200014f578063321c920b14620001595780633bfdd7de14620001c957620000e8565b80630505c8c914620000ed578063102a7c7d14620001135780632d2c55651462000145575b600080fd5b620000f762000338565b604080516001600160a01b039092168252519081900360200190f35b62000133600480360360208110156200012b57600080fd5b503562000347565b60408051918252519081900360200190f35b620000f762000369565b620000f76200038d565b6200019a600480360360808110156200017157600080fd5b506001600160a01b038135811691602081013582169160408201358116916060013516620003b1565b60405180836001600160a01b03168152602001826001600160a01b031681526020019250505060405180910390f35b620001f260048036036020811015620001e157600080fd5b50356001600160a01b03166200078d565b005b62000133600480360360208110156200020c57600080fd5b50356200086e565b6200019a600480360360608110156200022c57600080fd5b506001600160a01b0381358116916020810135821691604090910135166200087f565b620000f762000c68565b620000f762000c8c565b620001f2600480360360408110156200027b57600080fd5b8101906020810181356401000000008111156200029757600080fd5b820183602082011115620002aa57600080fd5b80359060200191846020830284011164010000000083111715620002cd57600080fd5b919390929091602081019035640100000000811115620002ec57600080fd5b820183602082011115620002ff57600080fd5b803590602001918460208302840111640100000000831117156200032257600080fd5b50909250905062000cb0565b620000f762000ee4565b6000546001600160a01b031681565b600181815481106200035857600080fd5b600091825260209091200154905081565b7f000000000000000000000000000000000000000000000000000000000000000081565b7f000000000000000000000000000000000000000000000000000000000000000081565b60025460009081906200040b576040805162461bcd60e51b815260206004820152601e60248201527f637265617465426f6e643a2066656573206d7573742062652073657475700000604482015290519081900360640190fd5b6000848787877f0000000000000000000000000000000000000000000000000000000000000000887f00000000000000000000000000000000000000000000000000000000000000007f000000000000000000000000000000000000000000000000000000000000000060016002604051620004879062000f6a565b808b6001600160a01b031681526020018a6001600160a01b03168152602001896001600160a01b03168152602001886001600160a01b03168152602001876001600160a01b03168152602001866001600160a01b03168152602001856001600160a01b03168152602001846001600160a01b03168152602001806020018060200183810383528581815481526020019150805480156200054757602002820191906000526020600020905b81548152602001906001019080831162000532575b505083810382528481815481526020019150805480156200058857602002820191906000526020600020905b81548152602001906001019080831162000573575b50509c50505050505050505050505050604051809103906000f080158015620005b5573d6000803e3d6000fd5b50604080516001600160a01b038089168252808416602083015287168183015290519192507f34c882c38c88d2da38fac8717334976b41c856bc28585db7383e4835d2cc73cf919081900360600190a17f00000000000000000000000000000000000000000000000000000000000000006001600160a01b0316630e8dbe248888888589600160026040518863ffffffff1660e01b815260040180886001600160a01b03168152602001876001600160a01b03168152602001866001600160a01b03168152602001856001600160a01b03168152602001846001600160a01b0316815260200180602001806020018381038352858181548152602001915080548015620006e257602002820191906000526020600020905b815481526020019060010190808311620006cd575b505083810382528481815481526020019150805480156200072357602002820191906000526020600020905b8154815260200190600101908083116200070e575b505099505050505050505050506040805180830381600087803b1580156200074a57600080fd5b505af11580156200075f573d6000803e3d6000fd5b505050506040513d60408110156200077657600080fd5b508051602090910151909890975095505050505050565b6000546001600160a01b03163314620007ed576040805162461bcd60e51b815260206004820181905260248201527f4f776e61626c653a2063616c6c6572206973206e6f7420746865206f776e6572604482015290519081900360640190fd5b6001600160a01b038116620008345760405162461bcd60e51b815260040180806020018281038252602a81526020018062005a39602a913960400191505060405180910390fd5b600080547fffffffffffffffffffffffff0000000000000000000000000000000000000000166001600160a01b0392909216919091179055565b600281815481106200035857600080fd5b6002546000908190620008c45760405162461bcd60e51b815260040180806020018281038252602981526020018062005a106029913960400191505060405180910390fd5b60008584604051620008d69062000f78565b6001600160a01b03928316815291166020820152604080519182900301906000f0801580156200090a573d6000803e3d6000fd5b50905060008187877f00000000000000000000000000000000000000000000000000000000000000007f0000000000000000000000000000000000000000000000000000000000000000897f00000000000000000000000000000000000000000000000000000000000000007f000000000000000000000000000000000000000000000000000000000000000060016002604051620009a99062000f6a565b808b6001600160a01b031681526020018a6001600160a01b03168152602001896001600160a01b03168152602001886001600160a01b03168152602001876001600160a01b03168152602001866001600160a01b03168152602001856001600160a01b03168152602001846001600160a01b031681526020018060200180602001838103835285818154815260200191508054801562000a6957602002820191906000526020600020905b81548152602001906001019080831162000a54575b5050838103825284818154815260200191508054801562000aaa57602002820191906000526020600020905b81548152602001906001019080831162000a95575b50509c50505050505050505050505050604051809103906000f08015801562000ad7573d6000803e3d6000fd5b50604080516001600160a01b038086168252808416602083015288168183015290519192507f34c882c38c88d2da38fac8717334976b41c856bc28585db7383e4835d2cc73cf919081900360600190a17f00000000000000000000000000000000000000000000000000000000000000006001600160a01b0316630e8dbe24888885858a600160026040518863ffffffff1660e01b815260040180886001600160a01b03168152602001876001600160a01b03168152602001866001600160a01b03168152602001856001600160a01b03168152602001846001600160a01b0316815260200180602001806020018381038352858181548152602001915080548015620006e25760200282019190600052602060002090815481526020019060010190808311620006cd57505083810382528481815481526020019150805480156200072357602002820191906000526020600020908154815260200190600101908083116200070e57505099505050505050505050506040805180830381600087803b1580156200074a57600080fd5b7f000000000000000000000000000000000000000000000000000000000000000081565b7f000000000000000000000000000000000000000000000000000000000000000081565b6000546001600160a01b0316331462000d10576040805162461bcd60e51b815260206004820181905260248201527f4f776e61626c653a2063616c6c6572206973206e6f7420746865206f776e6572604482015290519081900360640190fd5b82811462000d505760405162461bcd60e51b8152600401808060200182810382526038815260200180620059d86038913960400191505060405180910390fd5b6000805b8281101562000d905762000d8584848381811062000d6e57fe5b905060200201358362000f0890919063ffffffff16565b915060010162000d54565b506000811162000dd25760405162461bcd60e51b8152600401808060200182810382526028815260200180620059b06028913960400191505060405180910390fd5b60005b8281101562000e4957600186868381811062000ded57fe5b83546001810185556000948552602094859020919094029290920135919092015550600284848381811062000e1e57fe5b8354600180820186556000958652602095869020929095029390930135920191909155500162000dd5565b507f7170399ecd66b5be3ad09fa69bb2f47cce8c6d7e055d71fdf154450f7b549821858585856040518080602001806020018381038352878782818152602001925060200280828437600083820152601f01601f19169091018481038352858152602090810191508690860280828437600083820152604051601f909101601f19169092018290039850909650505050505050a15050505050565b7f000000000000000000000000000000000000000000000000000000000000000081565b60008282018381101562000f63576040805162461bcd60e51b815260206004820152601b60248201527f536166654d6174683a206164646974696f6e206f766572666c6f770000000000604482015290519081900360640190fd5b9392505050565b613b748062000f8783390190565b610eb58062004afb8339019056fe6101206040523480156200001257600080fd5b5060405162003b7438038062003b7483398181016040526101408110156200003957600080fd5b815160208301516040808501516060860151608087015160a088015160c089015160e08a01516101008b0180519751999b989a969995989497939692959194919392820192846401000000008211156200009257600080fd5b908301906020820185811115620000a857600080fd5b8251866020820283011164010000000082111715620000c657600080fd5b82525081516020918201928201910280838360005b83811015620000f5578181015183820152602001620000db565b50505050905001604052602001805160405193929190846401000000008211156200011f57600080fd5b9083019060208201858111156200013557600080fd5b82518660208202830111640100000000821117156200015357600080fd5b82525081516020918201928201910280838360005b838110156200018257818101518382015260200162000168565b50505050919091016040525050600080546001600160a01b0319163317905550506001600160a01b038a16620001ea5760405162461bcd60e51b815260040180806020018281038252603081526020018062003a936030913960400191505060405180910390fd5b6001600160601b031960608b901b1660a0526001600160a01b038916620002435760405162461bcd60e51b815260040180806020018281038252602d81526020018062003a38602d913960400191505060405180910390fd5b6001600160601b031960608a901b166080526001600160a01b0388166200029c5760405162461bcd60e51b815260040180806020018281038252603081526020018062003b446030913960400191505060405180910390fd5b600180546001600160a01b0319166001600160a01b038a8116919091179091558716620002fb5760405162461bcd60e51b815260040180806020018281038252602d81526020018062003ae8602d913960400191505060405180910390fd5b600280546001600160a01b0319166001600160a01b038981169190911790915586166200035a5760405162461bcd60e51b815260040180806020018281038252602f81526020018062003b15602f913960400191505060405180910390fd5b6001600160601b0319606087901b1660e0526001600160a01b038516620003b35760405162461bcd60e51b815260040180806020018281038252602e81526020018062003a65602e913960400191505060405180910390fd5b600080546001600160a01b0319166001600160a01b03878116919091179091558416620004125760405162461bcd60e51b815260040180806020018281038252602581526020018062003ac36025913960400191505060405180910390fd5b6001600160601b0319606085901b1660c0526001600160a01b0383166200046b5760405162461bcd60e51b8152600401808060200182810382526028815260200180620039e96028913960400191505060405180910390fd5b6001600160601b0319606084901b16610100528051825114620004c05760405162461bcd60e51b815260040180806020018281038252602781526020018062003a116027913960400191505060405180910390fd5b60005b82518110156200053b5760126040518060400160405280858481518110620004e757fe5b602002602001015181526020018484815181106200050157fe5b60209081029190910181015190915282546001818101855560009485529382902083516002909202019081559101519082015501620004c3565b50506013805460ff1916600117905550505050505050505060805160601c60a05160601c60c05160601c60e05160601c6101005160601c6133d96200061060003980610c1d5280610c915280610dbb5280611f295250806112c25280611989525080610eeb5280611722525080610ff55280611915528061225e528061254952806125e5525080610d4152806111fe52806114c1528061166b5280611a485280611adb5280611b815280611c4c5280611d055280611d915280611e46528061231052806126bf5280612d2e52506133d96000f3fe6080604052600436106102a45760003560e01c80637cbe044c1161016e578063d5025625116100cb578063e392a2621161007f578063f551bf2011610064578063f551bf2014610868578063f5c2ab5b1461087d578063fc7b9c1814610892576102ab565b8063e392a2621461083e578063f4c10ba814610853576102ab565b8063dbc162de116100b0578063dbc162de146107ff578063e0176de814610814578063e2f6f51114610829576102ab565b8063d5025625146107aa578063d7ccfb0b146107ea576102ab565b80639f8c657b11610122578063a9bc6b7111610107578063a9bc6b7114610727578063cd1234b31461073c578063cea55f5714610795576102ab565b80639f8c657b146106ca578063a50603b2146106df576102ab565b806395a2251f1161015357806395a2251f1461066d57806396624297146106a057806398fabd3a146106b5576102ab565b80637cbe044c146106195780638dbdbe6d1461062e576102ab565b80633340ed851161021c578063507930ec116101d057806375796e77116101b557806375796e77146105c5578063759076e5146105da5780637927ebf8146105ef576102ab565b8063507930ec146105415780635668338614610574576102ab565b80633a301b2a116102015780633a301b2a146104b75780633bfdd7de146104cc578063451ee4a1146104ff576102ab565b80633340ed851461045857806334b8e4751461048b576102ab565b80631a3d0068116102735780631e321a0f116102585780631e321a0f146103b95780631ed4a869146103ec5780632bab6bde14610443576102ab565b80631a3d0068146103505780631ba7182a14610390576102ab565b806301a84a1b146102b057806301b88ee8146102d75780630505c8c91461030a5780630a7484891461033b576102ab565b366102ab57005b600080fd5b3480156102bc57600080fd5b506102c56108a7565b60408051918252519081900360200190f35b3480156102e357600080fd5b506102c5600480360360208110156102fa57600080fd5b50356001600160a01b03166108ad565b34801561031657600080fd5b5061031f610906565b604080516001600160a01b039092168252519081900360200190f35b34801561034757600080fd5b506102c5610915565b34801561035c57600080fd5b5061038e6004803603608081101561037357600080fd5b5080351515906020810135906040810135906060013561094d565b005b34801561039c57600080fd5b506103a5610aa0565b604080519115158252519081900360200190f35b3480156103c557600080fd5b5061038e600480360360408110156103dc57600080fd5b5060ff8135169060200135610aae565b6104206004803603606081101561040257600080fd5b508035906001600160a01b0360208201358116916040013516610bff565b604080516001600160a01b03909316835260208301919091528051918290030190f35b34801561044f57600080fd5b506102c5610eda565b34801561046457600080fd5b5061038e6004803603602081101561047b57600080fd5b50356001600160a01b0316610ee0565b34801561049757600080fd5b5061038e600480360360208110156104ae57600080fd5b50351515610f81565b3480156104c357600080fd5b5061031f610ff3565b3480156104d857600080fd5b5061038e600480360360208110156104ef57600080fd5b50356001600160a01b0316611017565b34801561050b57600080fd5b506105146110f5565b60408051951515865260208601949094528484019290925260608401526080830152519081900360a00190f35b34801561054d57600080fd5b506102c56004803603602081101561056457600080fd5b50356001600160a01b031661110d565b34801561058057600080fd5b506102c5600480360360a081101561059757600080fd5b508035906020810135906001600160a01b03604082013581169160608101358216916080909101351661119f565b3480156105d157600080fd5b5061031f6112c0565b3480156105e657600080fd5b506102c56112e4565b3480156105fb57600080fd5b506102c56004803603602081101561061257600080fd5b50356112fd565b34801561062557600080fd5b506102c5611350565b34801561063a57600080fd5b506102c56004803603606081101561065157600080fd5b50803590602081013590604001356001600160a01b0316611356565b34801561067957600080fd5b506102c56004803603602081101561069057600080fd5b50356001600160a01b03166113de565b3480156106ac57600080fd5b506103a5611717565b3480156106c157600080fd5b5061031f611720565b3480156106d657600080fd5b5061031f611744565b3480156106eb57600080fd5b5061038e600480360360c081101561070257600080fd5b5080359060208101359060408101359060608101359060808101359060a00135611753565b34801561073357600080fd5b506102c561197c565b34801561074857600080fd5b5061076f6004803603602081101561075f57600080fd5b50356001600160a01b0316611a08565b604080519485526020850193909352838301919091526060830152519081900360800190f35b3480156107a157600080fd5b506102c5611a2f565b3480156107b657600080fd5b506107bf611b63565b6040805195865260208601949094528484019290925260608401526080830152519081900360a00190f35b3480156107f657600080fd5b506102c5611b75565b34801561080b57600080fd5b5061031f611c38565b34801561082057600080fd5b506102c5611c47565b34801561083557600080fd5b5061031f611e44565b34801561084a57600080fd5b506102c5611e68565b34801561085f57600080fd5b506102c5611ead565b34801561087457600080fd5b5061031f611f27565b34801561088957600080fd5b506102c5611f4b565b34801561089e57600080fd5b506102c5611f51565b60075481565b6000806108b98361110d565b6001600160a01b03841660009081526014602052604090205490915061271082106108e6578092506108ff565b6108fc6127106108f68385611f57565b90611fb9565b92505b5050919050565b6000546001600160a01b031681565b600061094861093a620f42406108f661092c611ead565b610934611b75565b90611f57565b610942611b75565b90611ffb565b905090565b6000546001600160a01b031633146109ac576040805162461bcd60e51b815260206004820181905260248201527f4f776e61626c653a2063616c6c6572206973206e6f7420746865206f776e6572604482015290519081900360640190fd5b6008546109c2906103e8906108f690601e611f57565b831115610a16576040805162461bcd60e51b815260206004820152601360248201527f496e6372656d656e7420746f6f206c6172676500000000000000000000000000604482015290519081900360640190fd5b60008211610a555760405162461bcd60e51b81526004018080602001828103825260248152602001806133096024913960400191505060405180910390fd5b6040805160a0810182529415158086526020860185905290850183905260608501829052436080909501859052600d805460ff19169091179055600e92909255600f55601055601155565b601354610100900460ff1681565b6000546001600160a01b03163314610b0d576040805162461bcd60e51b815260206004820181905260248201527f4f776e61626c653a2063616c6c6572206973206e6f7420746865206f776e6572604482015290519081900360640190fd5b6000826002811115610b1b57fe5b1415610b6c57612710811015610b625760405162461bcd60e51b81526004018080602001828103825260248152602001806132c26024913960400191505060405180910390fd5b6009819055610bfb565b6001826002811115610b7a57fe5b1415610be1576103e8811115610bd7576040805162461bcd60e51b815260206004820181905260248201527f5061796f75742063616e6e6f742062652061626f766520312070657263656e74604482015290519081900360640190fd5b600b819055610bfb565b6002826002811115610bef57fe5b1415610bfb57600c8190555b5050565b6000806001600160a01b038416610c6b576040516001600160a01b037f000000000000000000000000000000000000000000000000000000000000000016904780156108fc02916000818181858888f19350505050158015610c65573d6000803e3d6000fd5b50610d24565b610c806001600160a01b038516333088612055565b836001600160a01b031663095ea7b37f0000000000000000000000000000000000000000000000000000000000000000876040518363ffffffff1660e01b815260040180836001600160a01b0316815260200182815260200192505050602060405180830381600087803b158015610cf757600080fd5b505af1158015610d0b573d6000803e3d6000fd5b505050506040513d6020811015610d2157600080fd5b50505b6040805160208082018890526001600160a01b03808816838501527f0000000000000000000000000000000000000000000000000000000000000000811660608401528087166080808501919091528451808503909101815260a08401948590527fc20fd7a20000000000000000000000000000000000000000000000000000000090945260a48301828152845160c485015284517f00000000000000000000000000000000000000000000000000000000000000009092169363c20fd7a2938693839260e4019185019080838360005b83811015610e0d578181015183820152602001610df5565b50505050905090810190601f168015610e3a5780820380516001836020036101000a031916815260200191505b50925050506040805180830381600087803b158015610e5857600080fd5b505af1158015610e6c573d6000803e3d6000fd5b505050506040513d6040811015610e8257600080fd5b508051602091820151604080516001600160a01b038416815293840182905280519296509094507fb854df037407615523ac9e42e11c9bf6aa3f93c43a0647f04f6f5814d37c39e0928290030190a150935093915050565b60045481565b336001600160a01b037f00000000000000000000000000000000000000000000000000000000000000001614610f475760405162461bcd60e51b815260040180806020018281038252603481526020018061320e6034913960400191505060405180910390fd5b600280547fffffffffffffffffffffffff0000000000000000000000000000000000000000166001600160a01b0392909216919091179055565b6000546001600160a01b03163314610fe0576040805162461bcd60e51b815260206004820181905260248201527f4f776e61626c653a2063616c6c6572206973206e6f7420746865206f776e6572604482015290519081900360640190fd5b6013805460ff1916911515919091179055565b7f000000000000000000000000000000000000000000000000000000000000000081565b6000546001600160a01b03163314611076576040805162461bcd60e51b815260206004820181905260248201527f4f776e61626c653a2063616c6c6572206973206e6f7420746865206f776e6572604482015290519081900360640190fd5b6001600160a01b0381166110bb5760405162461bcd60e51b815260040180806020018281038252602a81526020018061337a602a913960400191505060405180910390fd5b600080547fffffffffffffffffffffffff0000000000000000000000000000000000000000166001600160a01b0392909216919091179055565b600d54600e54600f5460105460115460ff9094169385565b6000611117613186565b506001600160a01b0382166000908152601460209081526040808320815160808101835281548152600182015493810193909352600281015491830182905260030154606083015290919061116d9043906120ce565b602083015190915080156111925761118b816108f684612710611f57565b9350611197565b600093505b505050919050565b60006001600160a01b0382166111e65760405162461bcd60e51b815260040180806020018281038252602381526020018061332d6023913960400191505060405180910390fd5b6000806111f4888787610bff565b91509150611222337f0000000000000000000000000000000000000000000000000000000000000000612110565b6001600160a01b0382166112675760405162461bcd60e51b81526004018080602001828103825260238152602001806132e66023913960400191505060405180910390fd5b600081116112a65760405162461bcd60e51b81526004018080602001828103825260278152602001806131c16027913960400191505060405180910390fd5b6112b48188848760006121ac565b98975050505050505050565b7f000000000000000000000000000000000000000000000000000000000000000081565b60006109486112f1611e68565b600554906120ce565b90565b60008061132264174876e8006108f661131d86611318611b75565b61295b565b612add565b9050611347611340620f42406108f6611339611ead565b8590611f57565b82906120ce565b9150505b919050565b60035481565b60006001600160a01b0382166113b3576040805162461bcd60e51b815260206004820152600f60248201527f496e76616c696420616464726573730000000000000000000000000000000000604482015290519081900360640190fd5b6113d68484600160009054906101000a90046001600160a01b03168560016121ac565b949350505050565b60006113e8613186565b506001600160a01b03821660009081526014602090815260408083208151608081018352815481526001820154938101939093526002810154918301919091526003015460608201529061143b8461110d565b90506127108110611570576001600160a01b03841660008181526014602090815260408083208381556001810184905560028101849055600301839055855181519485529184019190915282810191909152517f51c99f515c87b0d95ba97f616edd182e8f161c4932eac17c6fefe9dab58b77b19181900360600190a1815115611567577f00000000000000000000000000000000000000000000000000000000000000006001600160a01b031663a9059cbb8584600001516040518363ffffffff1660e01b815260040180836001600160a01b0316815260200182815260200192505050602060405180830381600087803b15801561153a57600080fd5b505af115801561154e573d6000803e3d6000fd5b505050506040513d602081101561156457600080fd5b50505b5051905061134b565b815160009061158790612710906108f69085611f57565b905060405180608001604052806115ab8386600001516120ce90919063ffffffff16565b81526020016115d56115ca8660400151436120ce90919063ffffffff16565b6020870151906120ce565b8152436020808301919091526060808701516040938401526001600160a01b03891660008181526014845284902085518082558685015160018301558686015160028301559583015160039091015583519081529182018590528183019390935290517f51c99f515c87b0d95ba97f616edd182e8f161c4932eac17c6fefe9dab58b77b1929181900390910190a1801561170d577f00000000000000000000000000000000000000000000000000000000000000006001600160a01b031663a9059cbb86836040518363ffffffff1660e01b815260040180836001600160a01b0316815260200182815260200192505050602060405180830381600087803b1580156116e057600080fd5b505af11580156116f4573d6000803e3d6000fd5b505050506040513d602081101561170a57600080fd5b50505b925061134b915050565b60135460ff1681565b7f000000000000000000000000000000000000000000000000000000000000000081565b6002546001600160a01b031681565b6000546001600160a01b031633146117b2576040805162461bcd60e51b815260206004820181905260248201527f4f776e61626c653a2063616c6c6572206973206e6f7420746865206f776e6572604482015290519081900360640190fd5b6008541580156117c25750600086115b6117fd5760405162461bcd60e51b815260040180806020018281038252603c815260200180613242603c913960400191505060405180910390fd5b61271085101561183e5760405162461bcd60e51b81526004018080602001828103825260248152602001806132c26024913960400191505060405180910390fd5b6103e8831115611895576040805162461bcd60e51b815260206004820181905260248201527f5061796f75742063616e6e6f742062652061626f766520312070657263656e74604482015290519081900360640190fd5b6040805160a081018252878152602081018790528082018690526060810185905260800183905260088790556009869055600a859055600b849055600c83905560058290554360065580517ff95c230600000000000000000000000000000000000000000000000000000000815230600482015290516001600160a01b037f0000000000000000000000000000000000000000000000000000000000000000169163f95c230691602480830192600092919082900301818387803b15801561195c57600080fd5b505af1158015611970573d6000803e3d6000fd5b50505050505050505050565b6000336001600160a01b037f000000000000000000000000000000000000000000000000000000000000000016146119fb576040805162461bcd60e51b815260206004820152601760248201527f4f6e6c79207375627369647920636f6e74726f6c6c6572000000000000000000604482015290519081900360640190fd5b5060078054600090915590565b60146020526000908152604090208054600182015460028301546003909301549192909184565b6000610948670de0b6b3a76400006108f661131d611ad97f00000000000000000000000000000000000000000000000000000000000000006001600160a01b031663313ce5676040518163ffffffff1660e01b815260040160206040518083038186803b158015611a9f57600080fd5b505afa158015611ab3573d6000803e3d6000fd5b505050506040513d6020811015611ac957600080fd5b505160ff16600a0a6109346112e4565b7f00000000000000000000000000000000000000000000000000000000000000006001600160a01b03166318160ddd6040518163ffffffff1660e01b815260040160206040518083038186803b158015611b3257600080fd5b505afa158015611b46573d6000803e3d6000fd5b505050506040513d6020811015611b5c57600080fd5b505161295b565b600854600954600a54600b54600c5485565b6000611c24611c0d60057f00000000000000000000000000000000000000000000000000000000000000006001600160a01b031663313ce5676040518163ffffffff1660e01b815260040160206040518083038186803b158015611bd857600080fd5b505afa158015611bec573d6000803e3d6000fd5b505050506040513d6020811015611c0257600080fd5b505160ff16906120ce565b600a0a6108f6611c1b611a2f565b60085490611f57565b600a549091508110156112fa5750600a5490565b6001546001600160a01b031681565b6000807f00000000000000000000000000000000000000000000000000000000000000006001600160a01b03166318160ddd6040518163ffffffff1660e01b815260040160206040518083038186803b158015611ca357600080fd5b505afa158015611cb7573d6000803e3d6000fd5b505050506040513d6020811015611ccd57600080fd5b5051604080517f313ce56700000000000000000000000000000000000000000000000000000000815290519192506001600160a01b037f0000000000000000000000000000000000000000000000000000000000000000169163313ce56791600480820192602092909190829003018186803b158015611d4c57600080fd5b505afa158015611d60573d6000803e3d6000fd5b505050506040513d6020811015611d7657600080fd5b505160ff16600a0a670de0b6b3a764000002811115611e27577f00000000000000000000000000000000000000000000000000000000000000006001600160a01b031663313ce5676040518163ffffffff1660e01b815260040160206040518083038186803b158015611de857600080fd5b505afa158015611dfc573d6000803e3d6000fd5b505050506040513d6020811015611e1257600080fd5b505160ff16600a0a670de0b6b3a76400000290505b600b54611e3e90620186a0906108f6908490611f57565b91505090565b7f000000000000000000000000000000000000000000000000000000000000000081565b600080611e80600654436120ce90919063ffffffff16565b600954600554919250611e97916108f69084611f57565b9150600554821115611ea95760055491505b5090565b601254600090815b81811015611f225760128181548110611eca57fe5b9060005260206000209060020201600001546003541080611eed57506001820381145b15611f1a5760128181548110611eff57fe5b906000526020600020906002020160010154925050506112fa565b600101611eb5565b505090565b7f000000000000000000000000000000000000000000000000000000000000000081565b60065481565b60055481565b600082611f6657506000611fb3565b82820282848281611f7357fe5b0414611fb05760405162461bcd60e51b815260040180806020018281038252602181526020018061327e6021913960400191505060405180910390fd5b90505b92915050565b6000611fb083836040518060400160405280601a81526020017f536166654d6174683a206469766973696f6e206279207a65726f000000000000815250612af5565b600082820183811015611fb0576040805162461bcd60e51b815260206004820152601b60248201527f536166654d6174683a206164646974696f6e206f766572666c6f770000000000604482015290519081900360640190fd5b604080516001600160a01b0380861660248301528416604482015260648082018490528251808303909101815260849091019091526020810180516001600160e01b03167f23b872dd000000000000000000000000000000000000000000000000000000001790526120c8908590612b97565b50505050565b6000611fb083836040518060400160405280601e81526020017f536166654d6174683a207375627472616374696f6e206f766572666c6f770000815250612c48565b6000816001600160a01b03166370a08231306040518263ffffffff1660e01b815260040180826001600160a01b0316815260200191505060206040518083038186803b15801561215f57600080fd5b505afa158015612173573d6000803e3d6000fd5b505050506040513d602081101561218957600080fd5b5051905080156121a7576121a76001600160a01b0383168483612ca2565b505050565b60006121b6612cf4565b600c54600554111561220f576040805162461bcd60e51b815260206004820152601460248201527f4d61782063617061636974792072656163686564000000000000000000000000604482015290519081900360640190fd5b6000612219610915565b90508086101561225a5760405162461bcd60e51b815260040180806020018281038252602381526020018061329f6023913960400191505060405180910390fd5b60007f00000000000000000000000000000000000000000000000000000000000000006001600160a01b031663d1b317e5878a6040518363ffffffff1660e01b815260040180836001600160a01b031681526020018281526020019250505060206040518083038186803b1580156122d157600080fd5b505afa1580156122e5573d6000803e3d6000fd5b505050506040513d60208110156122fb57600080fd5b50519050600061230a82612d08565b905060647f00000000000000000000000000000000000000000000000000000000000000006001600160a01b031663313ce5676040518163ffffffff1660e01b815260040160206040518083038186803b15801561236757600080fd5b505afa15801561237b573d6000803e3d6000fd5b505050506040513d602081101561239157600080fd5b505160ff16600a0a816123a057fe5b048110156123f5576040805162461bcd60e51b815260206004820152600e60248201527f426f6e6420746f6f20736d616c6c000000000000000000000000000000000000604482015290519081900360640190fd5b6123fd611c47565b811115612451576040805162461bcd60e51b815260206004820152600e60248201527f426f6e6420746f6f206c61726765000000000000000000000000000000000000604482015290519081900360640190fd5b841561246c5761246c6001600160a01b03881633308c612055565b60135460009060ff161561252357612493620f42406108f661248c611ead565b8d90611f57565b9050801561251e576002546040805163a9059cbb60e01b81526001600160a01b039283166004820152602481018490529051918a169163a9059cbb916044808201926020929091908290030181600087803b1580156124f157600080fd5b505af1158015612505573d6000803e3d6000fd5b505050506040513d602081101561251b57600080fd5b50505b612538565b612535620f42406108f6611339611ead565b90505b876001600160a01b031663095ea7b37f00000000000000000000000000000000000000000000000000000000000000008c6040518363ffffffff1660e01b815260040180836001600160a01b0316815260200182815260200192505050602060405180830381600087803b1580156125af57600080fd5b505af11580156125c3573d6000803e3d6000fd5b505050506040513d60208110156125d957600080fd5b50506001600160a01b037f000000000000000000000000000000000000000000000000000000000000000016630efe6a8b896126158d856120ce565b856040518463ffffffff1660e01b815260040180846001600160a01b031681526020018381526020018281526020019350505050600060405180830381600087803b15801561266357600080fd5b505af1158015612677573d6000803e3d6000fd5b505060135460ff1615915050801561268e57508015155b15612737576002546040805163a9059cbb60e01b81526001600160a01b0392831660048201526024810184905290517f00000000000000000000000000000000000000000000000000000000000000009092169163a9059cbb916044808201926020929091908290030181600087803b15801561270a57600080fd5b505af115801561271e573d6000803e3d6000fd5b505050506040513d602081101561273457600080fd5b50505b6005546127449084611ffb565b60055560135460ff16156127e157604080516080810182526001600160a01b03891660009081526014602052919091205481906127819085611ffb565b8152600954602082015243604082015260600161279c610915565b90526001600160a01b03881660009081526014602090815260409182902083518155908301516001820155908201516002820155606090910151600390910155612875565b6040805160808101909152806128196127fa85856120ce565b6001600160a01b038b1660009081526014602052604090205490611ffb565b81526009546020820152436040820152606001612834610915565b90526001600160a01b038816600090815260146020908152604091829020835181559083015160018201559082015160028201556060909101516003909101555b7fb7ce5a2d90f1705ca02547b0eb827724683e0df3b809477ae4326d0eefed0bc08a836128b060086001015443611ffb90919063ffffffff16565b60408051938452602084019290925282820152519081900360600190a17f2cb17bd1fd2a1fecfefae2de1e6a59194abaa62179652924ccdca01617f0bf166128f6612d22565b6128fe611a2f565b6040805192835260208301919091528051918290030190a1600354612923908b611ffb565b6003556004546129339083611ffb565b6004556007546129439083611ffb565b60075561294e612dab565b5098975050505050505050565b6129636131ae565b600082116129a25760405162461bcd60e51b81526004018080602001828103825260268152602001806131e86026913960400191505060405180910390fd5b826129bc5750604080516020810190915260008152611fb3565b71ffffffffffffffffffffffffffffffffffff8311612a6357600082607085901b816129e457fe5b0490506001600160e01b03811115612a43576040805162461bcd60e51b815260206004820152601e60248201527f4669786564506f696e743a3a6672616374696f6e3a206f766572666c6f770000604482015290519081900360640190fd5b6040518060200160405280826001600160e01b0316815250915050611fb3565b6000612a7f846e01000000000000000000000000000085612e8b565b90506001600160e01b03811115612a43576040805162461bcd60e51b815260206004820152601e60248201527f4669786564506f696e743a3a6672616374696f6e3a206f766572666c6f770000604482015290519081900360640190fd5b516612725dd1d243ab6001600160e01b039091160490565b60008183612b815760405162461bcd60e51b81526004018080602001828103825283818151815260200191508051906020019080838360005b83811015612b46578181015183820152602001612b2e565b50505050905090810190601f168015612b735780820380516001836020036101000a031916815260200191505b509250505060405180910390fd5b506000838581612b8d57fe5b0495945050505050565b6060612bec826040518060400160405280602081526020017f5361666545524332303a206c6f772d6c6576656c2063616c6c206661696c6564815250856001600160a01b0316612f2b9092919063ffffffff16565b8051909150156121a757808060200190516020811015612c0b57600080fd5b50516121a75760405162461bcd60e51b815260040180806020018281038252602a815260200180613350602a913960400191505060405180910390fd5b60008184841115612c9a5760405162461bcd60e51b8152602060048201818152835160248401528351909283926044909101919085019080838360008315612b46578181015183820152602001612b2e565b505050900390565b604080516001600160a01b038416602482015260448082018490528251808303909101815260649091019091526020810180516001600160e01b031663a9059cbb60e01b1790526121a7908490612b97565b612cff6112f1611e68565b60055543600655565b6000611fb364174876e8006108f661131d85611318611b75565b6000612d85611c0d60057f00000000000000000000000000000000000000000000000000000000000000006001600160a01b031663313ce5676040518163ffffffff1660e01b815260040160206040518083038186803b158015611bd857600080fd5b600a54909150811015612d9b5750600a546112fa565b600a54156112fa576000600a5590565b601054601154600091612dbe9190611ffb565b600e5490915015801590612dd25750804310155b15612e8857600854600d5460ff1615612e0c57600e54600854612df491611ffb565b6008819055600f5411612e07576000600e555b612e2e565b600e54600854612e1b916120ce565b6008819055600f5410612e2e576000600e555b43601155600854600e54600d546040805185815260208101949094528381019290925260ff1615156060830152517fb923e581a0f83128e9e1d8297aa52b18d6744310476e0b54509c054cd7a93b2a9181900360800190a1505b50565b6000806000612e9a8686612f3a565b9150915060008480612ea857fe5b868809905082811115612ebc576001820391505b8083039250848210612f15576040805162461bcd60e51b815260206004820152601a60248201527f46756c6c4d6174683a3a6d756c4469763a206f766572666c6f77000000000000604482015290519081900360640190fd5b612f20838387612f85565b979650505050505050565b60606113d68484600085612ff5565b600080807fffffffffffffffffffffffffffffffffffffffffffffffffffffffffffffffff84860990508385029250828103915082811015612f7d576001820391505b509250929050565b60008181038216808381612f9557fe5b049250808581612fa157fe5b049450808160000381612fb057fe5b60028581038087028203028087028203028087028203028087028203028087028203028087028203029586029003909402930460010193909302939093010292915050565b606061300085613180565b613051576040805162461bcd60e51b815260206004820152601d60248201527f416464726573733a2063616c6c20746f206e6f6e2d636f6e7472616374000000604482015290519081900360640190fd5b60006060866001600160a01b031685876040518082805190602001908083835b602083106130ae57805182527fffffffffffffffffffffffffffffffffffffffffffffffffffffffffffffffe09092019160209182019101613071565b6001836020036101000a03801982511681845116808217855250505050505090500191505060006040518083038185875af1925050503d8060008114613110576040519150601f19603f3d011682016040523d82523d6000602084013e613115565b606091505b509150915081156131295791506113d69050565b8051156131395780518082602001fd5b60405162461bcd60e51b8152602060048201818152865160248401528651879391928392604401919085019080838360008315612b46578181015183820152602001612b2e565b3b151590565b6040518060800160405280600081526020016000815260200160008152602001600081525090565b6040805160208101909152600081529056fe6465706f7369745769746841737365743a20496e73756666696369656e74206c70416d6f756e744669786564506f696e743a3a6672616374696f6e3a206469766973696f6e206279207a65726f6368616e67654f6c7954726561737572793a204f6e6c792044414f2063616e207265706c616365204f4c595f5452454153555259696e697469616c697a65426f6e643a20636f6e74726f6c5661726961626c65206d757374206265203020666f7220696e697469616c697a6174696f6e536166654d6174683a206d756c7469706c69636174696f6e206f766572666c6f77536c697070616765206c696d69743a206d6f7265207468616e206d617820707269636556657374696e67206d757374206265206c6f6e676572207468616e20333620686f7572736465706f7369745769746841737365743a20496e76616c6964206c704164647265737373657441646a7573746d656e743a207461726765742067726561746572207468616e20306465706f7369745769746841737365743a20496e76616c6964206465706f7369746f725361666545524332303a204552433230206f7065726174696f6e20646964206e6f7420737563636565644f776e61626c653a206e65774f776e6572206d757374206e6f74206265207a65726f2061646472657373a2646970667358221220c51fc70d75653983123d317d93382310239b8cd379fc0fa7f117bf28a440240464736f6c63430007050033466163746f72793a2068656c706572206d757374206e6f74206265207a65726f206164647265737374696572206c656e67746820616e6420666565206c656e677468206e6f74207468652073616d65466163746f72793a207061796f7574546f6b656e206d757374206e6f74206265207a65726f2061646472657373466163746f72793a20696e697469616c4f776e6572206d757374206e6f74206265207a65726f2061646472657373466163746f72793a20637573746f6d5472656173757279206d757374206e6f74206265207a65726f2061646472657373466163746f72793a2044414f206d757374206e6f74206265207a65726f2061646472657373466163746f72793a206f6c795472656173757279206d757374206e6f74206265207a65726f2061646472657373466163746f72793a2073756273696479526f75746572206d757374206e6f74206265207a65726f2061646472657373466163746f72793a207072696e636970616c546f6b656e206d757374206e6f74206265207a65726f206164647265737360a060405234801561001057600080fd5b50604051610eb5380380610eb58339818101604052604081101561003357600080fd5b508051602090910151600080546001600160a01b031916331790556001600160a01b0382166100935760405162461bcd60e51b8152600401808060200182810382526034815260200180610e816034913960400191505060405180910390fd5b6001600160601b0319606083901b166080526001600160a01b0381166100ea5760405162461bcd60e51b8152600401808060200182810382526035815260200180610e4c6035913960400191505060405180910390fd5b600080546001600160a01b039092166001600160a01b03199092169190911790555060805160601c610d146101386000398061025c528061033d528061045e528061052a5250610d146000f3fe608060405234801561001057600080fd5b50600436106100885760003560e01c80634efa82b61161005b5780634efa82b614610145578063d1b317e51461014d578063d9caed121461018b578063f95c2306146101c157610088565b80630505c8c91461008d5780630efe6a8b146100b157806324705db3146100e55780633bfdd7de1461011f575b600080fd5b6100956101e7565b604080516001600160a01b039092168252519081900360200190f35b6100e3600480360360608110156100c757600080fd5b506001600160a01b0381351690602081013590604001356101f6565b005b61010b600480360360208110156100fb57600080fd5b50356001600160a01b0316610369565b604080519115158252519081900360200190f35b6100e36004803603602081101561013557600080fd5b50356001600160a01b031661037e565b61009561045c565b6101796004803603604081101561016357600080fd5b506001600160a01b038135169060200135610480565b60408051918252519081900360200190f35b6100e3600480360360608110156101a157600080fd5b506001600160a01b038135811691602081013590911690604001356105b7565b6100e3600480360360208110156101d757600080fd5b50356001600160a01b0316610679565b6000546001600160a01b031681565b3360009081526001602052604090205460ff166102445760405162461bcd60e51b8152600401808060200182810382526021815260200180610c6a6021913960400191505060405180910390fd5b6102596001600160a01b038416333085610772565b807f00000000000000000000000000000000000000000000000000000000000000006001600160a01b03166370a08231306040518263ffffffff1660e01b815260040180826001600160a01b0316815260200191505060206040518083038186803b1580156102c757600080fd5b505afa1580156102db573d6000803e3d6000fd5b505050506040513d60208110156102f157600080fd5b505110156103305760405162461bcd60e51b8152600401808060200182810382526029815260200180610c206029913960400191505060405180910390fd5b6103646001600160a01b037f0000000000000000000000000000000000000000000000000000000000000000163383610800565b505050565b60016020526000908152604090205460ff1681565b6000546001600160a01b031633146103dd576040805162461bcd60e51b815260206004820181905260248201527f4f776e61626c653a2063616c6c6572206973206e6f7420746865206f776e6572604482015290519081900360640190fd5b6001600160a01b0381166104225760405162461bcd60e51b815260040180806020018281038252602a815260200180610cb5602a913960400191505060405180910390fd5b600080547fffffffffffffffffffffffff0000000000000000000000000000000000000000166001600160a01b0392909216919091179055565b7f000000000000000000000000000000000000000000000000000000000000000081565b60006105b0836001600160a01b031663313ce5676040518163ffffffff1660e01b815260040160206040518083038186803b1580156104be57600080fd5b505afa1580156104d2573d6000803e3d6000fd5b505050506040513d60208110156104e857600080fd5b5051604080517f313ce567000000000000000000000000000000000000000000000000000000008152905160ff909216600a0a916105aa916001600160a01b037f0000000000000000000000000000000000000000000000000000000000000000169163313ce56791600480820192602092909190829003018186803b15801561057157600080fd5b505afa158015610585573d6000803e3d6000fd5b505050506040513d602081101561059b57600080fd5b5051859060ff16600a0a610880565b906108e2565b9392505050565b6000546001600160a01b03163314610616576040805162461bcd60e51b815260206004820181905260248201527f4f776e61626c653a2063616c6c6572206973206e6f7420746865206f776e6572604482015290519081900360640190fd5b61062a6001600160a01b0384168383610800565b604080516001600160a01b0380861682528416602082015280820183905290517f9b1bfa7fa9ee420a16e124f794c35ac9f90472acc99140eb2f6447c714cad8eb9181900360600190a1505050565b6000546001600160a01b031633148061069a5750336001600160a01b038216145b6106eb576040805162461bcd60e51b815260206004820181905260248201527f4f776e61626c653a2063616c6c6572206973206e6f7420746865206f776e6572604482015290519081900360640190fd5b6001600160a01b03811660008181526001602090815260409182902080547fffffffffffffffffffffffffffffffffffffffffffffffffffffffffffffff00811660ff91821615179182905583519485521615159083015280517f661abc66f13f27ca765c6a753171d10aa4861f03f1b506c5b1297a2dc80cf8ee9281900390910190a150565b604080516001600160a01b0380861660248301528416604482015260648082018490528251808303909101815260849091019091526020810180517bffffffffffffffffffffffffffffffffffffffffffffffffffffffff167f23b872dd000000000000000000000000000000000000000000000000000000001790526107fa908590610924565b50505050565b604080516001600160a01b038416602482015260448082018490528251808303909101815260649091019091526020810180517bffffffffffffffffffffffffffffffffffffffffffffffffffffffff167fa9059cbb00000000000000000000000000000000000000000000000000000000179052610364908490610924565b60008261088f575060006108dc565b8282028284828161089c57fe5b04146108d95760405162461bcd60e51b8152600401808060200182810382526021815260200180610c496021913960400191505060405180910390fd5b90505b92915050565b60006105b083836040518060400160405280601a81526020017f536166654d6174683a206469766973696f6e206279207a65726f0000000000008152506109d5565b6060610979826040518060400160405280602081526020017f5361666545524332303a206c6f772d6c6576656c2063616c6c206661696c6564815250856001600160a01b0316610a779092919063ffffffff16565b8051909150156103645780806020019051602081101561099857600080fd5b50516103645760405162461bcd60e51b815260040180806020018281038252602a815260200180610c8b602a913960400191505060405180910390fd5b60008183610a615760405162461bcd60e51b81526004018080602001828103825283818151815260200191508051906020019080838360005b83811015610a26578181015183820152602001610a0e565b50505050905090810190601f168015610a535780820380516001836020036101000a031916815260200191505b509250505060405180910390fd5b506000838581610a6d57fe5b0495945050505050565b6060610a868484600085610a8e565b949350505050565b6060610a9985610c19565b610aea576040805162461bcd60e51b815260206004820152601d60248201527f416464726573733a2063616c6c20746f206e6f6e2d636f6e7472616374000000604482015290519081900360640190fd5b60006060866001600160a01b031685876040518082805190602001908083835b60208310610b4757805182527fffffffffffffffffffffffffffffffffffffffffffffffffffffffffffffffe09092019160209182019101610b0a565b6001836020036101000a03801982511681845116808217855250505050505090500191505060006040518083038185875af1925050503d8060008114610ba9576040519150601f19603f3d011682016040523d82523d6000602084013e610bae565b606091505b50915091508115610bc2579150610a869050565b805115610bd25780518082602001fd5b60405162461bcd60e51b8152602060048201818152865160248401528651879391928392604401919085019080838360008315610a26578181015183820152602001610a0e565b3b15159056fe6465706f7369743a20496e73756666696369656e74207061796f7574546f6b656e2062616c616e6365536166654d6174683a206d756c7469706c69636174696f6e206f766572666c6f776d73672e73656e646572206973206e6f74206120626f6e6420636f6e74726163745361666545524332303a204552433230206f7065726174696f6e20646964206e6f7420737563636565644f776e61626c653a206e65774f776e6572206d757374206e6f74206265207a65726f2061646472657373a2646970667358221220999703416df39ebdd6badca5b3a04cebb789f87d0b4482e520acc978d5c82ab164736f6c63430007050033437573746f6d54726561737572793a20696e697469616c4f776e6572206d757374206e6f74206265207a65726f2061646472657373437573746f6d54726561737572793a207061796f7574546f6b656e206d757374206e6f74206265207a65726f20616464726573737365745469657273416e64466565733a20666565206d7573742067726561746572207468616e20307365745469657273416e64466565733a2074696572206c656e67746820616e6420666565206c656e677468206d7573742062652073616d65637265617465426f6e64416e6454726561737572793a2066656573206d7573742062652073657475704f776e61626c653a206e65774f776e6572206d757374206e6f74206265207a65726f2061646472657373a2646970667358221220233202a981dafb40707ae61956e85d19ba008ed2c01141dbd84fc7b29990494164736f6c63430007050033466163746f72793a2068656c706572206d757374206e6f74206265207a65726f2061646472657373466163746f72793a207472656173757279206d757374206e6f74206265207a65726f2061646472657373466163746f72793a2073756273696479526f75746572206d757374206e6f74206265207a65726f2061646472657373466163746f72793a2064616f206d757374206e6f74206265207a65726f2061646472657373466163746f72793a20666163746f727953746f72616765206d757374206e6f74206265207a65726f2061646472657373",
  "devdoc": {
    "kind": "dev",
    "methods": {
      "createBond(address,address,address,address)": {
        "params": {
          "_customTreasury": "address",
          "_initialOwner": "address",
          "_payoutToken": "address",
          "_principleToken": "address"
        },
        "returns": {
          "_bond": "address",
          "_treasury": "address"
        }
      },
      "createBondAndTreasury(address,address,address)": {
        "params": {
          "_initialOwner": "address",
          "_payoutToken": "address",
          "_principleToken": "address"
        },
        "returns": {
          "_bond": "address",
          "_treasury": "address"
        }
      },
      "setTiersAndFees(uint256[],uint256[])": {
        "params": {
          "_fees": "uint[]",
          "_tierCeilings": "uint[]"
        }
      }
    },
    "version": 1
  },
  "userdoc": {
    "kind": "user",
    "methods": {
      "createBond(address,address,address,address)": {
        "notice": "deploys custom treasury and custom bond contracts and returns address of both"
      },
      "createBondAndTreasury(address,address,address)": {
        "notice": "deploys custom treasury and custom bond contracts and returns address of both"
      },
      "setTiersAndFees(uint256[],uint256[])": {
        "notice": "set fee for creating bond"
      }
    },
    "version": 1
  },
  "storageLayout": {
    "storage": [
      {
        "astId": 13572,
        "contract": "src/bonding/Factory.sol:Factory",
        "label": "policy",
        "offset": 0,
        "slot": "0",
        "type": "t_address"
      },
      {
        "astId": 10030,
        "contract": "src/bonding/Factory.sol:Factory",
        "label": "tierCeilings",
        "offset": 0,
        "slot": "1",
        "type": "t_array(t_uint256)dyn_storage"
      },
      {
        "astId": 10033,
        "contract": "src/bonding/Factory.sol:Factory",
        "label": "fees",
        "offset": 0,
        "slot": "2",
        "type": "t_array(t_uint256)dyn_storage"
      }
    ],
    "types": {
      "t_address": {
        "encoding": "inplace",
        "label": "address",
        "numberOfBytes": "20"
      },
      "t_array(t_uint256)dyn_storage": {
        "base": "t_uint256",
        "encoding": "dynamic_array",
        "label": "uint256[]",
        "numberOfBytes": "32"
      },
      "t_uint256": {
        "encoding": "inplace",
        "label": "uint256",
        "numberOfBytes": "32"
      }
    }
  }
}