{
  "address": "0x53BeF80E0EBE5A89dfb67782b12435aBeB943754",
  "abi": [
    {
      "anonymous": false,
      "inputs": [
        {
          "indexed": false,
          "internalType": "address",
          "name": "treasury",
          "type": "address"
        },
        {
          "indexed": false,
          "internalType": "address",
          "name": "bond",
          "type": "address"
        },
        {
          "indexed": false,
          "internalType": "address",
          "name": "_initialOwner",
          "type": "address"
        }
      ],
      "name": "NewBond",
      "type": "event"
    },
    {
      "inputs": [
        {
          "internalType": "uint256",
          "name": "",
          "type": "uint256"
        }
      ],
      "name": "bondDetails",
      "outputs": [
        {
          "internalType": "address",
          "name": "_payoutToken",
          "type": "address"
        },
        {
          "internalType": "address",
          "name": "_principleToken",
          "type": "address"
        },
        {
          "internalType": "address",
          "name": "_treasuryAddress",
          "type": "address"
        },
        {
          "internalType": "address",
          "name": "_bondAddress",
          "type": "address"
        },
        {
          "internalType": "address",
          "name": "_initialOwner",
          "type": "address"
        }
      ],
      "stateMutability": "view",
      "type": "function"
    },
    {
      "inputs": [],
      "name": "factory",
      "outputs": [
        {
          "internalType": "address",
          "name": "",
          "type": "address"
        }
      ],
      "stateMutability": "view",
      "type": "function"
    },
    {
      "inputs": [
        {
          "internalType": "address",
          "name": "",
          "type": "address"
        }
      ],
      "name": "indexOfBond",
      "outputs": [
        {
          "internalType": "uint256",
          "name": "",
          "type": "uint256"
        }
      ],
      "stateMutability": "view",
      "type": "function"
    },
    {
      "inputs": [],
      "name": "policy",
      "outputs": [
        {
          "internalType": "address",
          "name": "",
          "type": "address"
        }
      ],
      "stateMutability": "view",
      "type": "function"
    },
    {
      "inputs": [
        {
          "internalType": "address",
          "name": "_payoutToken",
          "type": "address"
        },
        {
          "internalType": "address",
          "name": "_principleToken",
          "type": "address"
        },
        {
          "internalType": "address",
          "name": "_customTreasury",
          "type": "address"
        },
        {
          "internalType": "address",
          "name": "_customBond",
          "type": "address"
        },
        {
          "internalType": "address",
          "name": "_initialOwner",
          "type": "address"
        },
        {
          "internalType": "uint256[]",
          "name": "_tierCeilings",
          "type": "uint256[]"
        },
        {
          "internalType": "uint256[]",
          "name": "_fees",
          "type": "uint256[]"
        }
      ],
      "name": "pushBond",
      "outputs": [
        {
          "internalType": "address",
          "name": "_treasury",
          "type": "address"
        },
        {
          "internalType": "address",
          "name": "_bond",
          "type": "address"
        }
      ],
      "stateMutability": "nonpayable",
      "type": "function"
    },
    {
      "inputs": [
        {
          "internalType": "address",
          "name": "_factory",
          "type": "address"
        }
      ],
      "name": "setFactoryAddress",
      "outputs": [],
      "stateMutability": "nonpayable",
      "type": "function"
    },
    {
      "inputs": [
        {
          "internalType": "address",
          "name": "_newOwner",
          "type": "address"
        }
      ],
      "name": "transferManagment",
      "outputs": [],
      "stateMutability": "nonpayable",
      "type": "function"
    }
  ],
  "transactionHash": "0x8a4fa87d4c547f084def94e2f5f8e6292444059cc5cc5370487c781ccf52c734",
  "args": [],
  "solcInputHash": "29cdd399312fca3719ea5275a77f4a5e",
  "bytecode": "0x608060405234801561001057600080fd5b50600080546001600160a01b03191633179055610780806100326000396000f3fe608060405234801561001057600080fd5b506004361061007d5760003560e01c806383c17c551161005b57806383c17c55146101f0578063b1770b3714610216578063c45a01551461026f578063d8b256b4146102775761007d565b80630505c8c9146100825780630e8dbe24146100a65780633bfdd7de146101c8575b600080fd5b61008a6102af565b604080516001600160a01b039092168252519081900360200190f35b610199600480360360e08110156100bc57600080fd5b6001600160a01b03823581169260208101358216926040820135831692606083013581169260808101359091169181019060c0810160a082013564010000000081111561010857600080fd5b82018360208201111561011a57600080fd5b8035906020019184602083028401116401000000008311171561013c57600080fd5b91939092909160208101903564010000000081111561015a57600080fd5b82018360208201111561016c57600080fd5b8035906020019184602083028401116401000000008311171561018e57600080fd5b5090925090506102be565b60405180836001600160a01b03168152602001826001600160a01b031681526020019250505060405180910390f35b6101ee600480360360208110156101de57600080fd5b50356001600160a01b03166104ea565b005b6101ee6004803603602081101561020657600080fd5b50356001600160a01b03166105bd565b6102336004803603602081101561022c57600080fd5b503561064b565b604080516001600160a01b0396871681529486166020860152928516848401529084166060840152909216608082015290519081900360a00190f35b61008a61069f565b61029d6004803603602081101561028d57600080fd5b50356001600160a01b03166106ae565b60408051918252519081900360200190f35b6000546001600160a01b031681565b600080600180549050600360008a6001600160a01b03166001600160a01b031681526020019081526020016000208190555060016040518060e001604052808d6001600160a01b031681526020018c6001600160a01b031681526020018b6001600160a01b031681526020018a6001600160a01b03168152602001896001600160a01b03168152602001888880806020026020016040519081016040528093929190818152602001838360200280828437600092019190915250505090825250604080516020888102828101820190935288825292830192909189918991829185019084908082843760009201829052509390945250508354600180820186559482526020918290208451600790920201805473ffffffffffffffffffffffffffffffffffffffff199081166001600160a01b039384161782558584015196820180548216978416979097179096556040850151600282018054881691841691909117905560608501516003820180548816918416919091179055608085015160048201805490971692169190911790945560a0830151805193949361046e9350600585019291909101906106c0565b5060c0820151805161048a9160068401916020909101906106c0565b5050604080516001600160a01b03808d168252808c1660208301528a168183015290517f42fda3176442e9a8959c45f539015766faca90fb0e02a2c21dab39ecdce4a69992509081900360600190a1509699959850949650505050505050565b6000546001600160a01b03163314610549576040805162461bcd60e51b815260206004820181905260248201527f4f776e61626c653a2063616c6c6572206973206e6f7420746865206f776e6572604482015290519081900360640190fd5b6001600160a01b03811661058e5760405162461bcd60e51b815260040180806020018281038252602a815260200180610721602a913960400191505060405180910390fd5b6000805473ffffffffffffffffffffffffffffffffffffffff19166001600160a01b0392909216919091179055565b6000546001600160a01b0316331461061c576040805162461bcd60e51b815260206004820181905260248201527f4f776e61626c653a2063616c6c6572206973206e6f7420746865206f776e6572604482015290519081900360640190fd5b6002805473ffffffffffffffffffffffffffffffffffffffff19166001600160a01b0392909216919091179055565b6001818154811061065b57600080fd5b6000918252602090912060079091020180546001820154600283015460038401546004909401546001600160a01b0393841695509183169390831692908116911685565b6002546001600160a01b031681565b60036020526000908152604090205481565b8280548282559060005260206000209081019282156106fb579160200282015b828111156106fb5782518255916020019190600101906106e0565b5061070792915061070b565b5090565b5b80821115610707576000815560010161070c56fe4f776e61626c653a206e65774f776e6572206d757374206e6f74206265207a65726f2061646472657373a2646970667358221220f773249bc3495d401c57109c94a4e516fa26fe1d3c51b0d9b837654f8300650c64736f6c63430007050033",
  "devdoc": {
    "kind": "dev",
    "methods": {
      "pushBond(address,address,address,address,address,uint256[],uint256[])": {
        "params": {
          "_customBond": "address",
          "_customTreasury": "address",
          "_fees": "uint[]",
          "_initialOwner": "address",
          "_payoutToken": "address",
          "_principleToken": "address",
          "_tierCeilings": "uint[]"
        },
        "returns": {
          "_bond": "address",
          "_treasury": "address"
        }
      },
      "setFactoryAddress(address)": {
        "params": {
          "_factory": "address"
        }
      }
    },
    "version": 1
  },
  "userdoc": {
    "kind": "user",
    "methods": {
      "pushBond(address,address,address,address,address,uint256[],uint256[])": {
        "notice": "pushes bond details to array"
      },
      "setFactoryAddress(address)": {
        "notice": "changes flux pro factory address"
      }
    },
    "version": 1
  },
  "storageLayout": {
    "storage": [
      {
        "astId": 13535,
        "contract": "src/bonding/FactoryStorage.sol:FactoryStorage",
        "label": "policy",
        "offset": 0,
        "slot": "0",
        "type": "t_address"
      },
      {
        "astId": 10361,
        "contract": "src/bonding/FactoryStorage.sol:FactoryStorage",
        "label": "bondDetails",
        "offset": 0,
        "slot": "1",
        "type": "t_array(t_struct(BondDetails)10358_storage)dyn_storage"
      },
      {
        "astId": 10363,
        "contract": "src/bonding/FactoryStorage.sol:FactoryStorage",
        "label": "factory",
        "offset": 0,
        "slot": "2",
        "type": "t_address"
      },
      {
        "astId": 10367,
        "contract": "src/bonding/FactoryStorage.sol:FactoryStorage",
        "label": "indexOfBond",
        "offset": 0,
        "slot": "3",
        "type": "t_mapping(t_address,t_uint256)"
      }
    ],
    "types": {
      "t_address": {
        "encoding": "inplace",
        "label": "address",
        "numberOfBytes": "20"
      },
      "t_array(t_struct(BondDetails)10358_storage)dyn_storage": {
        "base": "t_struct(BondDetails)10358_storage",
        "encoding": "dynamic_array",
        "label": "struct FactoryStorage.BondDetails[]",
        "numberOfBytes": "32"
      },
      "t_array(t_uint256)dyn_storage": {
        "base": "t_uint256",
        "encoding": "dynamic_array",
        "label": "uint256[]",
        "numberOfBytes": "32"
      },
      "t_mapping(t_address,t_uint256)": {
        "encoding": "mapping",
        "key": "t_address",
        "label": "mapping(address => uint256)",
        "numberOfBytes": "32",
        "value": "t_uint256"
      },
      "t_struct(BondDetails)10358_storage": {
        "encoding": "inplace",
        "label": "struct FactoryStorage.BondDetails",
        "members": [
          {
            "astId": 10343,
            "contract": "src/bonding/FactoryStorage.sol:FactoryStorage",
            "label": "_payoutToken",
            "offset": 0,
            "slot": "0",
            "type": "t_address"
          },
          {
            "astId": 10345,
            "contract": "src/bonding/FactoryStorage.sol:FactoryStorage",
            "label": "_principleToken",
            "offset": 0,
            "slot": "1",
            "type": "t_address"
          },
          {
            "astId": 10347,
            "contract": "src/bonding/FactoryStorage.sol:FactoryStorage",
            "label": "_treasuryAddress",
            "offset": 0,
            "slot": "2",
            "type": "t_address"
          },
          {
            "astId": 10349,
            "contract": "src/bonding/FactoryStorage.sol:FactoryStorage",
            "label": "_bondAddress",
            "offset": 0,
            "slot": "3",
            "type": "t_address"
          },
          {
            "astId": 10351,
            "contract": "src/bonding/FactoryStorage.sol:FactoryStorage",
            "label": "_initialOwner",
            "offset": 0,
            "slot": "4",
            "type": "t_address"
          },
          {
            "astId": 10354,
            "contract": "src/bonding/FactoryStorage.sol:FactoryStorage",
            "label": "_tierCeilings",
            "offset": 0,
            "slot": "5",
            "type": "t_array(t_uint256)dyn_storage"
          },
          {
            "astId": 10357,
            "contract": "src/bonding/FactoryStorage.sol:FactoryStorage",
            "label": "_fees",
            "offset": 0,
            "slot": "6",
            "type": "t_array(t_uint256)dyn_storage"
          }
        ],
        "numberOfBytes": "224"
      },
      "t_uint256": {
        "encoding": "inplace",
        "label": "uint256",
        "numberOfBytes": "32"
      }
    }
  }
}