{
  "address": "0xE8aDf4aC50E3B117095a418A0a384c10197D73d8",
  "abi": [
    {
      "inputs": [
        {
          "internalType": "address",
          "name": "_bond",
          "type": "address"
        },
        {
          "internalType": "address",
          "name": "_subsidyController",
          "type": "address"
        }
      ],
      "name": "addSubsidyController",
      "outputs": [],
      "stateMutability": "nonpayable",
      "type": "function"
    },
    {
      "inputs": [
        {
          "internalType": "address",
          "name": "",
          "type": "address"
        }
      ],
      "name": "bondForController",
      "outputs": [
        {
          "internalType": "address",
          "name": "",
          "type": "address"
        }
      ],
      "stateMutability": "view",
      "type": "function"
    },
    {
      "inputs": [],
      "name": "getSubsidyInfo",
      "outputs": [
        {
          "internalType": "uint256",
          "name": "",
          "type": "uint256"
        }
      ],
      "stateMutability": "nonpayable",
      "type": "function"
    },
    {
      "inputs": [],
      "name": "policy",
      "outputs": [
        {
          "internalType": "address",
          "name": "",
          "type": "address"
        }
      ],
      "stateMutability": "view",
      "type": "function"
    },
    {
      "inputs": [
        {
          "internalType": "address",
          "name": "_subsidyController",
          "type": "address"
        }
      ],
      "name": "removeSubsidyController",
      "outputs": [],
      "stateMutability": "nonpayable",
      "type": "function"
    },
    {
      "inputs": [
        {
          "internalType": "address",
          "name": "_newOwner",
          "type": "address"
        }
      ],
      "name": "transferManagment",
      "outputs": [],
      "stateMutability": "nonpayable",
      "type": "function"
    }
  ],
  "transactionHash": "0x985b4b3ba0885a4362c30bde4577fbbb63f40ca6ae1aca0b36239dae8d76f5d1",
  "args": [],
  "solcInputHash": "da1493b86b8a7405cb923584ee4f7dc4",
  "bytecode": "0x608060405234801561001057600080fd5b50600080546001600160a01b031916331790556105d2806100326000396000f3fe608060405234801561001057600080fd5b50600436106100725760003560e01c80636ec65358116100505780636ec65358146100dd578063a9dab02614610103578063fd0c92d41461012957610072565b80630505c8c9146100775780633bfdd7de1461009b578063522c4ceb146100c3575b600080fd5b61007f610157565b604080516001600160a01b039092168252519081900360200190f35b6100c1600480360360208110156100b157600080fd5b50356001600160a01b0316610166565b005b6100cb610239565b60408051918252519081900360200190f35b61007f600480360360208110156100f357600080fd5b50356001600160a01b0316610340565b6100c16004803603602081101561011957600080fd5b50356001600160a01b031661035b565b6100c16004803603604081101561013f57600080fd5b506001600160a01b03813581169160200135166103ee565b6000546001600160a01b031681565b6000546001600160a01b031633146101c5576040805162461bcd60e51b815260206004820181905260248201527f4f776e61626c653a2063616c6c6572206973206e6f7420746865206f776e6572604482015290519081900360640190fd5b6001600160a01b03811661020a5760405162461bcd60e51b815260040180806020018281038252602a815260200180610573602a913960400191505060405180910390fd5b6000805473ffffffffffffffffffffffffffffffffffffffff19166001600160a01b0392909216919091179055565b336000908152600160205260408120546001600160a01b03166102a3576040805162461bcd60e51b815260206004820152601260248201527f41646472657373206e6f74206d61707065640000000000000000000000000000604482015290519081900360640190fd5b3360009081526001602090815260408083205481517fa9bc6b7100000000000000000000000000000000000000000000000000000000815291516001600160a01b039091169363a9bc6b7193600480850194919392918390030190829087803b15801561030f57600080fd5b505af1158015610323573d6000803e3d6000fd5b505050506040513d602081101561033957600080fd5b5051905090565b6001602052600090815260409020546001600160a01b031681565b6000546001600160a01b031633146103ba576040805162461bcd60e51b815260206004820181905260248201527f4f776e61626c653a2063616c6c6572206973206e6f7420746865206f776e6572604482015290519081900360640190fd5b6001600160a01b03166000908152600160205260409020805473ffffffffffffffffffffffffffffffffffffffff19169055565b6000546001600160a01b0316331461044d576040805162461bcd60e51b815260206004820181905260248201527f4f776e61626c653a2063616c6c6572206973206e6f7420746865206f776e6572604482015290519081900360640190fd5b6001600160a01b0382166104925760405162461bcd60e51b815260040180806020018281038252602c815260200180610515602c913960400191505060405180910390fd5b6001600160a01b0381166104d75760405162461bcd60e51b81526004018080602001828103825260328152602001806105416032913960400191505060405180910390fd5b6001600160a01b03908116600090815260016020526040902080549190921673ffffffffffffffffffffffffffffffffffffffff1990911617905556fe53756273696479526f757465723a20626f6e64206d757374206e6f74206265207a65726f206164647265737353756273696479526f757465723a20636f6e74726f6c6c6572206d757374206e6f74206265207a65726f20616464726573734f776e61626c653a206e65774f776e6572206d757374206e6f74206265207a65726f2061646472657373a2646970667358221220fa9973ac6876e3f626d826284b8950061fa17a37fa266aa63879e54e42a175da64736f6c63430007050033",
  "devdoc": {
    "kind": "dev",
    "methods": {
      "addSubsidyController(address,address)": {
        "params": {
          "_bond": "address",
          "_subsidyController": "address"
        }
      },
      "getSubsidyInfo()": {
        "returns": {
          "_0": "uint"
        }
      },
      "removeSubsidyController(address)": {
        "params": {
          "_subsidyController": "address"
        }
      }
    },
    "version": 1
  },
  "userdoc": {
    "kind": "user",
    "methods": {
      "addSubsidyController(address,address)": {
        "notice": "add new subsidy controller for bond contract"
      },
      "getSubsidyInfo()": {
        "notice": "subsidy controller fetches and resets payout counter"
      },
      "removeSubsidyController(address)": {
        "notice": "remove subsidy controller for bond contract"
      }
    },
    "version": 1
  },
  "storageLayout": {
    "storage": [
      {
        "astId": 13572,
        "contract": "src/bonding/SubsidyRouter.sol:SubsidyRouter",
        "label": "policy",
        "offset": 0,
        "slot": "0",
        "type": "t_address"
      },
      {
        "astId": 11411,
        "contract": "src/bonding/SubsidyRouter.sol:SubsidyRouter",
        "label": "bondForController",
        "offset": 0,
        "slot": "1",
        "type": "t_mapping(t_address,t_address)"
      }
    ],
    "types": {
      "t_address": {
        "encoding": "inplace",
        "label": "address",
        "numberOfBytes": "20"
      },
      "t_mapping(t_address,t_address)": {
        "encoding": "mapping",
        "key": "t_address",
        "label": "mapping(address => address)",
        "numberOfBytes": "32",
        "value": "t_address"
      }
    }
  }
}